:020000040800F2
:100000000004002045010008A50300089D03000826
:10001000A10300088D01000805070008000000008A
:10002000000000000000000000000000F1040008D3
:1000300091010008000000001D040008F5040008FC
:100040005F0100085F0100085F0100085F01000810
:100050005F0100085F0100085F0100085F01000800
:100060005F0100085F0100085F0100085F010008F0
:100070005F0100085F0100085F0100085F010008E0
:100080005F0100085F0100085F0100085F010008D0
:100090005F0100085F0100085F0100085F010008C0
:1000A0005F0100085F0100085F0100085F010008B0
:1000B0005F0100085F0100085F0100085F010008A0
:1000C0005F0100085F0100085F0100085F01000890
:1000D0005F0100085F0100085F0100085F01000880
:1000E0005F0100085F0100085F0100085F01000870
:1000F0005F0100085F0100085F0100085F01000860
:100100005F0100085F0100085F0100085F0100084F
:100110005F0100085F0100085F0100085F0100083F
:100120005F0100085F0100085F0100085F0100082F
:10013000DFF80CD000F018F8004800470907000865
:10014000000400200648804706480047FEE7FEE717
:10015000FEE7FEE7FEE7FEE7FEE7FEE7FEE7FEE777
:10016000F904000831010008064C074D06E0E0687C
:1001700040F0010394E8070098471034AC42F6D3EE
:10018000FFF7DAFF4807000858070008FEE70000FD
:1001900070470000F0B587B04FF48070012100F087
:1001A0004BF944F6000542F20000C4F20005C1F22A
:1001B000030005F5584401AE01902046314600F099
:1001C00089F84FF48070012100F036F94FF4804037
:1001D000ADF804002046314600F07CF808200121EB
:1001E00000F02AF94FF40060ADF81400042005F582
:1001F000444605AF8DF817003046394600F06AF8DE
:1002000040F20040C1F6030005903046394600F048
:1002100061F84FF48020012100F002F94FF4E13041
:10022000019000204FF4402102900391ADF810009E
:1002300001A9284600F00AFA284640F22551012279
:1002400000F0ECF9284640F22441012200F0E6F9E2
:100250004FF4A06000F0D8F82720C0F200100690FC
:1002600006A800F0A1F82846012100F0CDF92046AB
:100270004FF4804100F090F820464FF4005100F018
:1002800089F807B0F0BD0000B0B582B004200121AC
:1002900000F0D2F842F2000040F60004C1F2030080
:1002A000C4F2010401AD01902046294600F012F885
:1002B00028208DF807004FF48050ADF80400204648
:1002C000294600F007F820464FF4005100F062F88C
:1002D00002B0B0BD2DE9F047CA7802F00F0CD3068A
:1002E00044BF8B784CEA030C09880B0625D0824664
:1002F0005AF8144B00F1100E00254FF001094FF091
:100300000F08002706E000BF1E600137082F05F127
:10031000040511D009FA07F60E42F6D008FA05F3E3
:1003200024EA03030CFA05F41C43282A5346EBD0B5
:10033000482AEAD17346E7E70460B1F5807F38BF09
:10034000BDE8F087436800F1100E00F114090025A4
:100350004FF4807A4FF00F08002705E03460013732
:10036000082F05F1040512D00AFA07F404EA010681
:10037000A642F4D108FA05F6B3430CFA05F6334366
:10038000282A4E46EAD0482AE9D17646E6E7436075
:10039000BDE8F0874161704701617047FEE70000EA
:1003A000FEE700007047000010B5C17800294EF24A
:1003B0000011CEF200011AD04EF60C52CEF200021D
:1003C0001268072323EA12220F23C2F1040C23FA36
:1003D00002F24378847890F800E003FA0CF32240AC
:1003E0001A43120101EB0E0383F8002300E0803171
:1003F0000078012300F01F0203FA02F2C0F342105A
:1004000041F8202010BD000040F080604EF60C51F5
:1004100040F0FD70CEF200010860704770470000A8
:10042000002941F21C01C4F202010A680CBF22EA51
:100430000000104308607047002941F21801C4F21F
:1004400002010A680CBF22EA0000104308607047EE
:1004500010B541F20404C4F20204226802F00C0256
:10046000082A41F20022C0F27A021CD12368D4F893
:1004700000C0C3F3834E5FEACC330EF1020C06D406
:1004800040F60012C0F23D020CFB02F20BE02368C2
:100490009B0302D40CFB02F205E040F60012C0F20E
:1004A0003D020CFB02F20260226840F23873C2F394
:1004B0000312C0F600039A5C0168D14041602268D3
:1004C000C2F302229A5C21FA02F282602268C2F32D
:1004D000C2229A5C40F23473D140C1602268C0F6F7
:1004E0000003C2F381329A5CB1FBF2F1016110BDED
:1004F000704700007047000082B041F20400C4F26F
:10050000020050F8041C002241F0010140F8041CD4
:100510000168CFF6FF021140016050F8041C4FF64D
:10052000FF72CFF6F662114040F8041C50F8041C2C
:1005300021F4802140F8041C016821F4FE010160CF
:100540004FF41F01416000210191009150F8041CFB
:1005500041F4803140F8041C50F8041C01F40031CF
:100560000091019901310191009919B90199B1F5F1
:10057000A06FF1D150F8041C890354BF0021012160
:1005800000910099012936D142F20001C4F2020122
:100590000A6842F010020A600A6822F007020A6044
:1005A0000A6842F002020A600168016001680160A5
:1005B000016841F480610160016821F47C110160EF
:1005C000016841F4E811016050F8041C41F08071A9
:1005D00040F8041C50F8041C8901FBD5016821F087
:1005E00003010160016841F002010160016801F04E
:1005F0000C010829FAD14EF60850CEF200004FF057
:100600000061016002B070478289002918BF012192
:1006100022F4005242EA413181817047C1F3421312
:1006200001F01F0C1421022B08BF1021012B4FF0E9
:10063000010308BF0C21002A03FA0CF243580CBF37
:1006400023EA02021A4342507047000070B586B098
:100650000446008A0D46C98820F440500843208291
:10066000A0894EF6F3110840A9882A896B890843AE
:1006700010431843A081A08AA98920F44070084340
:1006800001AEA0823046FFF7E3FE43F6000106F11B
:100690000800C4F201018C4208BF06F10C0000689A
:1006A0001922B4F90C1050432A680123B1F1FF3F1D
:1006B000C8BF022302FA03F1B0FBF1F048F21F5168
:1006C000C5F2EB11A0FB01235A096FF0630302FB93
:1006D0000300B4F90C300326B3F1FF3FC8BF042672
:1006E00000FA06F000F13200A0FB01014FF0070014
:1006F000C8BF0F2000EA511040EA0210208106B066
:1007000070BD0000FEE7000080B5FFF7BDFDFFF7FC
:1007100041FD002080BD02E008C8121F08C1002A68
:10072000FAD170477047002001E001C1121F002A72
:10073000FBD1704702040608000000000102030418
:1007400001020304060708095807000800000020FA
:08075000000400002607000868
:0400000508000131BD
:00000001FF
