:020000040800F2
:1000000000040020450100089D010008950100083A
:10001000990100088D010008BD02000800000000E1
:10002000000000000000000000000000A501000822
:100030009101000800000000A1010008A9010008CA
:100040005F0100085F0100085F0100085F01000810
:100050005F0100085F0100085F0100085F01000800
:100060005F0100085F0100085F0100085F010008F0
:100070005F0100085F0100085F0100085F010008E0
:100080005F0100085F0100085F0100085F010008D0
:100090005F0100085F0100085F0100085F010008C0
:1000A0005F0100085F0100085F0100085F010008B0
:1000B0005F0100085F0100085F0100085F010008A0
:1000C0005F0100085F0100085F0100085F01000890
:1000D0005F0100085F0100085F0100085F01000880
:1000E0005F0100085F0100085F0100085F01000870
:1000F0005F0100085F0100085F0100085F01000860
:100100005F0100085F0100085F0100085F0100084F
:100110005F0100085F0100085F0100085F0100083F
:100120005F0100085F0100085F0100085F0100082F
:10013000DFF80CD000F018F800480047C1020008B2
:10014000000400200648804706480047FEE7FEE717
:10015000FEE7FEE7FEE7FEE7FEE7FEE7FEE7FEE777
:10016000AD01000831010008064C074D06E0E068CB
:1001700040F0010394E8070098471034AC42F6D3EE
:10018000FFF7DAFFE4020008F4020008FEE70000CF
:1001900070470000FEE70000FEE700007047000027
:1001A00070470000704700007047000082B041F2C5
:1001B0000400C4F2020050F8041C002241F00101C6
:1001C00040F8041C0168CFF6FF021140016050F8AE
:1001D000041C4FF6FF72CFF6F662114040F8041C83
:1001E00050F8041C21F4802140F8041C016821F41B
:1001F000FE0101604FF41F01416000210191009157
:1002000050F8041C41F4803140F8041C50F8041CE0
:1002100001F400310091019901310191009919B95E
:100220000199B1F5A06FF1D150F8041C890354BFB6
:100230000021012100910099012936D142F20001EB
:10024000C4F202010A6842F010020A600A6822F051
:1002500007020A600A6842F002020A60016801604F
:1002600001680160016841F480610160016821F466
:100270007C110160016841F4E811016050F8041C30
:1002800041F0807140F8041C50F8041C8901FBD532
:10029000016821F003010160016841F00201016081
:1002A000016801F00C010829FAD14EF60850CEF28F
:1002B00000004FF00061016002B07047FEE70000EF
:1002C0000020704702E008C8121F08C1002AFAD1B6
:1002D00070477047002001E001C1121F002AFBD1C6
:1002E00070470000F4020008000000200004000035
:0402F000D40200082C
:0400000508000131BD
:00000001FF
